{
  "contractName": "Voting",
  "abi": [
    {
      "inputs": [],
      "stateMutability": "nonpayable",
      "type": "constructor"
    },
    {
      "anonymous": false,
      "inputs": [
        {
          "indexed": true,
          "internalType": "uint256",
          "name": "candidateId",
          "type": "uint256"
        }
      ],
      "name": "VotedEvent",
      "type": "event"
    },
    {
      "inputs": [],
      "name": "admin",
      "outputs": [
        {
          "internalType": "address",
          "name": "",
          "type": "address"
        }
      ],
      "stateMutability": "view",
      "type": "function",
      "constant": true
    },
    {
      "inputs": [
        {
          "internalType": "uint256",
          "name": "",
          "type": "uint256"
        }
      ],
      "name": "candidates",
      "outputs": [
        {
          "internalType": "uint256",
          "name": "id",
          "type": "uint256"
        },
        {
          "internalType": "string",
          "name": "name",
          "type": "string"
        },
        {
          "internalType": "uint256",
          "name": "voteCount",
          "type": "uint256"
        }
      ],
      "stateMutability": "view",
      "type": "function",
      "constant": true
    },
    {
      "inputs": [],
      "name": "candidatesCount",
      "outputs": [
        {
          "internalType": "uint256",
          "name": "",
          "type": "uint256"
        }
      ],
      "stateMutability": "view",
      "type": "function",
      "constant": true
    },
    {
      "inputs": [
        {
          "internalType": "address",
          "name": "",
          "type": "address"
        }
      ],
      "name": "hasVoted",
      "outputs": [
        {
          "internalType": "bool",
          "name": "",
          "type": "bool"
        }
      ],
      "stateMutability": "view",
      "type": "function",
      "constant": true
    },
    {
      "inputs": [
        {
          "internalType": "string",
          "name": "_name",
          "type": "string"
        }
      ],
      "name": "addCandidate",
      "outputs": [],
      "stateMutability": "nonpayable",
      "type": "function"
    },
    {
      "inputs": [
        {
          "internalType": "uint256",
          "name": "_candidateId",
          "type": "uint256"
        }
      ],
      "name": "vote",
      "outputs": [],
      "stateMutability": "nonpayable",
      "type": "function"
    },
    {
      "inputs": [
        {
          "internalType": "uint256",
          "name": "_id",
          "type": "uint256"
        }
      ],
      "name": "getCandidate",
      "outputs": [
        {
          "internalType": "uint256",
          "name": "",
          "type": "uint256"
        },
        {
          "internalType": "string",
          "name": "",
          "type": "string"
        },
        {
          "internalType": "uint256",
          "name": "",
          "type": "uint256"
        }
      ],
      "stateMutability": "view",
      "type": "function",
      "constant": true
    },
    {
      "inputs": [],
      "name": "getTotalCandidates",
      "outputs": [
        {
          "internalType": "uint256",
          "name": "",
          "type": "uint256"
        }
      ],
      "stateMutability": "view",
      "type": "function",
      "constant": true
    }
  ],
  "bytecode": "0x608060405234801561001057600080fd5b50600280546001600160a01b031916331790556107b4806100326000396000f3fe608060405234801561001057600080fd5b50600436106100885760003560e01c80633477ee2e1161005b5780633477ee2e146100e857806335b8e8201461010a578063462e91ec1461011d578063f851a4401461013057610088565b80630121b93f1461008d57806309eef43e146100a25780630deb56ab146100cb5780632d35a8a2146100e0575b600080fd5b6100a061009b3660046105d1565b610145565b005b6100b56100b0366004610502565b610214565b6040516100c291906105fd565b60405180910390f35b6100d3610229565b6040516100c2919061069a565b6100d361022f565b6100fb6100f63660046105d1565b610235565b6040516100c2939291906106a3565b6100fb6101183660046105d1565b6102e0565b6100a061012b366004610530565b6103c5565b61013861045a565b6040516100c291906105e9565b3360009081526001602052604090205460ff161561017e5760405162461bcd60e51b81526004016101759061066a565b60405180910390fd5b60008111801561019057506003548111155b6101ac5760405162461bcd60e51b81526004016101759061063f565b336000908152600160208181526040808420805460ff191690931790925583835282905281206002018054916101e183610741565b909155505060405181907fe447c5464cb203c1da94b4db8588d3cbf313ce4a489122f6b88e87f465b2810e90600090a250565b60016020526000908152604090205460ff1681565b60035490565b60035481565b6000602081905290815260409020805460018201805491929161025790610706565b80601f016020809104026020016040519081016040528092919081815260200182805461028390610706565b80156102d05780601f106102a5576101008083540402835291602001916102d0565b820191906000526020600020905b8154815290600101906020018083116102b357829003601f168201915b5050505050908060020154905083565b600060606000806000808681526020019081526020016000206040518060600160405290816000820154815260200160018201805461031e90610706565b80601f016020809104026020016040519081016040528092919081815260200182805461034a90610706565b80156103975780601f1061036c57610100808354040283529160200191610397565b820191906000526020600020905b81548152906001019060200180831161037a57829003601f168201915b5050509183525050600291909101546020918201528151908201516040909201519097919650945092505050565b6002546001600160a01b031633146103ef5760405162461bcd60e51b815260040161017590610608565b600380549060006103ff83610741565b909155505060408051606081018252600354808252602080830185815260008486018190529283528282529390912082518155925180519293926104499260018501920190610469565b506040820151816002015590505050565b6002546001600160a01b031681565b82805461047590610706565b90600052602060002090601f01602090048101928261049757600085556104dd565b82601f106104b057805160ff19168380011785556104dd565b828001600101855582156104dd579182015b828111156104dd5782518255916020019190600101906104c2565b506104e99291506104ed565b5090565b5b808211156104e957600081556001016104ee565b600060208284031215610513578081fd5b81356001600160a01b0381168114610529578182fd5b9392505050565b60006020808385031215610542578182fd5b823567ffffffffffffffff80821115610559578384fd5b818501915085601f83011261056c578384fd5b81358181111561057e5761057e610768565b604051601f8201601f19168101850183811182821017156105a1576105a1610768565b60405281815283820185018810156105b7578586fd5b818585018683013790810190930193909352509392505050565b6000602082840312156105e2578081fd5b5035919050565b6001600160a01b0391909116815260200190565b901515815260200190565b6020808252601d908201527f4f6e6c792061646d696e2063616e206164642063616e64696461746573000000604082015260600190565b602080825260119082015270496e76616c69642063616e64696461746560781b604082015260600190565b602080825260169082015275165bdd481a185d9948185b1c9958591e481d9bdd195960521b604082015260600190565b90815260200190565b600084825260206060818401528451806060850152825b818110156106d6578681018301518582016080015282016106ba565b818111156106e75783608083870101525b5060408401949094525050601f91909101601f19160160800192915050565b60028104600182168061071a57607f821691505b6020821081141561073b57634e487b7160e01b600052602260045260246000fd5b50919050565b600060001982141561076157634e487b7160e01b81526011600452602481fd5b5060010190565b634e487b7160e01b600052604160045260246000fdfea2646970667358221220fab53ba10cb86c808d2d87ff811d893c10746721e16100e9513003ea782c3a9264736f6c63430008000033",
  "immutableReferences": {},
  "source": "// SPDX-License-Identifier: MIT\r\npragma solidity ^0.8.0;\r\n\r\ncontract Voting {\r\n    struct Candidate {\r\n        uint id;\r\n        string name;\r\n        uint voteCount;\r\n    }\r\n\r\n    mapping(uint => Candidate) public candidates;\r\n    mapping(address => bool) public hasVoted;\r\n    address public admin;\r\n    uint public candidatesCount;\r\n\r\n    event VotedEvent(uint indexed candidateId);\r\n\r\n    constructor() {\r\n        admin = msg.sender;\r\n    }\r\n\r\n    function addCandidate(string memory _name) public {\r\n        require(msg.sender == admin, \"Only admin can add candidates\");\r\n        candidatesCount++;\r\n        candidates[candidatesCount] = Candidate(candidatesCount, _name, 0);\r\n    }\r\n\r\n    function vote(uint _candidateId) public {\r\n        require(!hasVoted[msg.sender], \"You have already voted\");\r\n        require(_candidateId > 0 && _candidateId <= candidatesCount, \"Invalid candidate\");\r\n\r\n        hasVoted[msg.sender] = true;\r\n        candidates[_candidateId].voteCount++;\r\n\r\n        emit VotedEvent(_candidateId);\r\n    }\r\n\r\n    function getCandidate(uint _id) public view returns (uint, string memory, uint) {\r\n        Candidate memory candidate = candidates[_id];\r\n        return (candidate.id, candidate.name, candidate.voteCount);\r\n    }\r\n\r\n    function getTotalCandidates() public view returns (uint) {\r\n        return candidatesCount;\r\n    }\r\n}\r\n",
  "sourcePath": "C:\\Users\\SEBIN SABU\\voting-system\\contracts\\voting.sol",
  "compiler": {
    "name": "solc",
    "version": "0.8.0+commit.c7dfd78e.Emscripten.clang"
  },
  "schemaVersion": "3.4.16",
  "updatedAt": "2025-02-20T18:36:42.478Z",
  "networkType": "ethereum",
  "devdoc": {
    "kind": "dev",
    "methods": {},
    "version": 1
  },
  "userdoc": {
    "kind": "user",
    "methods": {},
    "version": 1
  }
}