{
  "contractName": "Voting",
  "abi": [
    {
      "inputs": [],
      "stateMutability": "nonpayable",
      "type": "constructor"
    },
    {
      "anonymous": false,
      "inputs": [
        {
          "indexed": false,
          "internalType": "uint256",
          "name": "candidateId",
          "type": "uint256"
        }
      ],
      "name": "CandidateRemoved",
      "type": "event"
    },
    {
      "anonymous": false,
      "inputs": [
        {
          "indexed": true,
          "internalType": "uint256",
          "name": "candidateId",
          "type": "uint256"
        }
      ],
      "name": "VotedEvent",
      "type": "event"
    },
    {
      "inputs": [],
      "name": "admin",
      "outputs": [
        {
          "internalType": "address",
          "name": "",
          "type": "address"
        }
      ],
      "stateMutability": "view",
      "type": "function",
      "constant": true
    },
    {
      "inputs": [
        {
          "internalType": "uint256",
          "name": "",
          "type": "uint256"
        }
      ],
      "name": "candidates",
      "outputs": [
        {
          "internalType": "uint256",
          "name": "id",
          "type": "uint256"
        },
        {
          "internalType": "string",
          "name": "name",
          "type": "string"
        },
        {
          "internalType": "uint256",
          "name": "voteCount",
          "type": "uint256"
        },
        {
          "internalType": "bool",
          "name": "exists",
          "type": "bool"
        }
      ],
      "stateMutability": "view",
      "type": "function",
      "constant": true
    },
    {
      "inputs": [],
      "name": "candidatesCount",
      "outputs": [
        {
          "internalType": "uint256",
          "name": "",
          "type": "uint256"
        }
      ],
      "stateMutability": "view",
      "type": "function",
      "constant": true
    },
    {
      "inputs": [
        {
          "internalType": "address",
          "name": "",
          "type": "address"
        }
      ],
      "name": "hasVoted",
      "outputs": [
        {
          "internalType": "bool",
          "name": "",
          "type": "bool"
        }
      ],
      "stateMutability": "view",
      "type": "function",
      "constant": true
    },
    {
      "inputs": [
        {
          "internalType": "string",
          "name": "_name",
          "type": "string"
        }
      ],
      "name": "addCandidate",
      "outputs": [],
      "stateMutability": "nonpayable",
      "type": "function"
    },
    {
      "inputs": [
        {
          "internalType": "uint256",
          "name": "_candidateId",
          "type": "uint256"
        }
      ],
      "name": "removeCandidate",
      "outputs": [],
      "stateMutability": "nonpayable",
      "type": "function"
    },
    {
      "inputs": [
        {
          "internalType": "uint256",
          "name": "_candidateId",
          "type": "uint256"
        }
      ],
      "name": "vote",
      "outputs": [],
      "stateMutability": "nonpayable",
      "type": "function"
    },
    {
      "inputs": [
        {
          "internalType": "uint256",
          "name": "_id",
          "type": "uint256"
        }
      ],
      "name": "getCandidate",
      "outputs": [
        {
          "internalType": "uint256",
          "name": "",
          "type": "uint256"
        },
        {
          "internalType": "string",
          "name": "",
          "type": "string"
        },
        {
          "internalType": "uint256",
          "name": "",
          "type": "uint256"
        },
        {
          "internalType": "bool",
          "name": "",
          "type": "bool"
        }
      ],
      "stateMutability": "view",
      "type": "function",
      "constant": true
    },
    {
      "inputs": [],
      "name": "getTotalCandidates",
      "outputs": [
        {
          "internalType": "uint256",
          "name": "",
          "type": "uint256"
        }
      ],
      "stateMutability": "view",
      "type": "function",
      "constant": true
    }
  ],
  "bytecode": "0x608060405234801561001057600080fd5b50600280546001600160a01b031916331790556109a4806100326000396000f3fe608060405234801561001057600080fd5b50600436106100935760003560e01c80632d35a8a2116100665780632d35a8a2146100fe5780633477ee2e1461010657806335b8e82014610129578063462e91ec1461013c578063f851a4401461014f57610093565b80630121b93f1461009857806309e9d7e2146100ad57806309eef43e146100c05780630deb56ab146100e9575b600080fd5b6100ab6100a6366004610740565b610164565b005b6100ab6100bb366004610740565b610236565b6100d36100ce366004610671565b6102fe565b6040516100e09190610772565b60405180910390f35b6100f1610313565b6040516100e0919061087b565b6100f1610319565b610119610114366004610740565b61031f565b6040516100e09493929190610884565b610119610137366004610740565b6103d4565b6100ab61014a36600461069f565b6104d4565b61015761058a565b6040516100e0919061075e565b3360009081526001602052604090205460ff161561019d5760405162461bcd60e51b81526004016101949061084b565b60405180910390fd5b60008181526020819052604090206003015460ff166101ce5760405162461bcd60e51b8152600401610194906107b4565b336000908152600160208181526040808420805460ff1916909317909255838352829052812060020180549161020383610931565b909155505060405181907fe447c5464cb203c1da94b4db8588d3cbf313ce4a489122f6b88e87f465b2810e90600090a250565b6002546001600160a01b031633146102605760405162461bcd60e51b815260040161019490610816565b60008181526020819052604090206003015460ff166102915760405162461bcd60e51b8152600401610194906107df565b6000818152602081905260408120818155906102b06001830182610599565b5060006002820155600301805460ff191690556040517f294c5a9bc8a39e6e06502bc8da429980f6c7b0990d75b682c12cb8705e3ace85906102f390839061087b565b60405180910390a150565b60016020526000908152604090205460ff1681565b60035490565b60035481565b60006020819052908152604090208054600182018054919291610341906108f6565b80601f016020809104026020016040519081016040528092919081815260200182805461036d906108f6565b80156103ba5780601f1061038f576101008083540402835291602001916103ba565b820191906000526020600020905b81548152906001019060200180831161039d57829003601f168201915b50505050600283015460039093015491929160ff16905084565b60006060600080600080600087815260200190815260200160002060405180608001604052908160008201548152602001600182018054610414906108f6565b80601f0160208091040260200160405190810160405280929190818152602001828054610440906108f6565b801561048d5780601f106104625761010080835404028352916020019161048d565b820191906000526020600020905b81548152906001019060200180831161047057829003601f168201915b5050509183525050600282015460208083019190915260039092015460ff161515604091820152825191830151908301516060909301519199909850919650945092505050565b6002546001600160a01b031633146104fe5760405162461bcd60e51b81526004016101949061077d565b6003805490600061050e83610931565b909155505060408051608081018252600354808252602080830185815260008486018190526001606086018190529381528083529490942083518155935180519394936105629385019291909101906105d8565b50604082015160028201556060909101516003909101805460ff191691151591909117905550565b6002546001600160a01b031681565b5080546105a5906108f6565b6000825580601f106105b757506105d5565b601f0160209004906000526020600020908101906105d5919061065c565b50565b8280546105e4906108f6565b90600052602060002090601f016020900481019282610606576000855561064c565b82601f1061061f57805160ff191683800117855561064c565b8280016001018555821561064c579182015b8281111561064c578251825591602001919060010190610631565b5061065892915061065c565b5090565b5b80821115610658576000815560010161065d565b600060208284031215610682578081fd5b81356001600160a01b0381168114610698578182fd5b9392505050565b600060208083850312156106b1578182fd5b823567ffffffffffffffff808211156106c8578384fd5b818501915085601f8301126106db578384fd5b8135818111156106ed576106ed610958565b604051601f8201601f191681018501838111828210171561071057610710610958565b6040528181528382018501881015610726578586fd5b818585018683013790810190930193909352509392505050565b600060208284031215610751578081fd5b5035919050565b15159052565b6001600160a01b0391909116815260200190565b901515815260200190565b6020808252601d908201527f4f6e6c792061646d696e2063616e206164642063616e64696461746573000000604082015260600190565b602080825260119082015270496e76616c69642063616e64696461746560781b604082015260600190565b60208082526018908201527f43616e64696461746520646f6573206e6f742065786973740000000000000000604082015260600190565b6020808252818101527f4f6e6c792061646d696e2063616e2072656d6f76652063616e64696461746573604082015260600190565b602080825260169082015275165bdd481a185d9948185b1c9958591e481d9bdd195960521b604082015260600190565b90815260200190565b600085825260206080818401528551806080850152825b818110156108b75787810183015185820160a00152820161089b565b818111156108c8578360a083870101525b5060408401869052601f01601f1916830160a00191506108ed90506060830184610758565b95945050505050565b60028104600182168061090a57607f821691505b6020821081141561092b57634e487b7160e01b600052602260045260246000fd5b50919050565b600060001982141561095157634e487b7160e01b81526011600452602481fd5b5060010190565b634e487b7160e01b600052604160045260246000fdfea2646970667358221220079494adfe689383c832d9468c666596d463deb8f4c6dc7eff25c0cad67b5d1364736f6c63430008000033",
  "immutableReferences": {},
  "source": "// SPDX-License-Identifier: MIT\r\npragma solidity ^0.8.0;\r\n\r\ncontract Voting {\r\n    struct Candidate {\r\n        uint id;\r\n        string name;\r\n        uint voteCount;\r\n        bool exists; // New flag to mark candidate existence\r\n    }\r\n\r\n    mapping(uint => Candidate) public candidates;\r\n    mapping(address => bool) public hasVoted;\r\n    address public admin;\r\n    uint public candidatesCount;\r\n\r\n    event CandidateRemoved(uint candidateId);\r\n    event VotedEvent(uint indexed candidateId);\r\n\r\n    constructor() {\r\n        admin = msg.sender;\r\n    }\r\n\r\n    function addCandidate(string memory _name) public {\r\n        require(msg.sender == admin, \"Only admin can add candidates\");\r\n        candidatesCount++;\r\n        candidates[candidatesCount] = Candidate(candidatesCount, _name, 0, true); // Mark as existing\r\n    }\r\n\r\n    function removeCandidate(uint _candidateId) public {\r\n        require(msg.sender == admin, \"Only admin can remove candidates\");\r\n        require(candidates[_candidateId].exists, \"Candidate does not exist\");\r\n\r\n        delete candidates[_candidateId]; // Remove candidate\r\n        emit CandidateRemoved(_candidateId);\r\n    }\r\n\r\n    function vote(uint _candidateId) public {\r\n        require(!hasVoted[msg.sender], \"You have already voted\");\r\n        require(candidates[_candidateId].exists, \"Invalid candidate\");\r\n\r\n        hasVoted[msg.sender] = true;\r\n        candidates[_candidateId].voteCount++;\r\n\r\n        emit VotedEvent(_candidateId);\r\n    }\r\n\r\n    function getCandidate(uint _id) public view returns (uint, string memory, uint, bool) {\r\n        Candidate memory candidate = candidates[_id];\r\n        return (candidate.id, candidate.name, candidate.voteCount, candidate.exists);\r\n    }\r\n\r\n    function getTotalCandidates() public view returns (uint) {\r\n        return candidatesCount;\r\n    }\r\n}\r\n",
  "sourcePath": "C:\\Users\\SEBIN SABU\\voting-system\\contracts\\voting.sol",
  "compiler": {
    "name": "solc",
    "version": "0.8.0+commit.c7dfd78e.Emscripten.clang"
  },
  "schemaVersion": "3.4.16",
  "updatedAt": "2025-03-25T16:14:48.015Z",
  "networkType": "ethereum",
  "devdoc": {
    "kind": "dev",
    "methods": {},
    "version": 1
  },
  "userdoc": {
    "kind": "user",
    "methods": {},
    "version": 1
  }
}